:020000040800F2
:1000000000200020E5060008D7060008D9060008F1
:1000100000000000000000000000000000000000E0
:10002000000000000000000000000000DB060008E7
:100030000000000000000000DD060008DF060008E8
:1000400035070008350700083507000835070008A0
:100050003507000835070008350700083507000890
:100060003507000835070008350700083507000880
:100070003507000835070008350700083507000870
:10008000350700083507000800000000D10400080B
:100090003507000835070008350700083507000850
:1000A0003507000835070008350700083507000840
:1000B00035070008000000003507000800000000B8
:1000C00010B5064C2378002B07D1054B002B02D02E
:1000D000044800E000BF0123237010BD1800002079
:1000E0000000000080070008044B10B5002B03D06F
:1000F0000349044800E000BF10BDC04600000000F6
:100100001C0000208007000882B04300181800235C
:10011000019304E0C046C046019B01330193019B5B
:100120008342F7D302B0704770B51420FFF7ECFF9D
:100130000A4CA36980252D022B43A3611420FFF7ED
:10014000E3FFA26980231B061343A3611420FFF77A
:10015000DBFFA3691D43A56170BDC04600080048D0
:1001600010B50400454A91698023DB010B4393617C
:1001700043B2002B46DB9022D205916980231B06F7
:100180000B439361630645D59022D2059169802384
:100190005B010B439361A30644D5394A91698023DF
:1001A0009B000B439361E30643D5354A9169802355
:1001B0005B000B439361FFF7B7FF230740D5902205
:1001C000D205916980231B020B43936163073FD5DE
:1001D0009022D205916980235B010B439361A307B1
:1001E0003ED5274A916980239B000B439361E40726
:1001F0003DD5234A916980235B000B439361FFF750
:1002000093FF10BD9022D205916980231B020B43FE
:100210009361B7E79022D205916980235B050B4378
:100220009361B8E7164A916980239B040B4393615D
:10023000B9E7134A916980235B040B439361BAE7E2
:100240009022D205916980231B060B439361BDE781
:100250009022D205916980235B050B439361BEE731
:10026000074A916980239B040B439361BFE7044ACB
:10027000916980235B040B439361C0E70008004849
:100280000004004870B50500002403E0FFF768FF94
:100290000134E4B2285D0028F8D170BD10B5040027
:1002A000474A91698023DB050B43936143B2002BDE
:1002B00049DB9022D205916980231B060B43936191
:1002C000630648D59022D205916980235B010B43D8
:1002D0009361A30647D53B4A916980239B000B435A
:1002E0009361E30646D5374A916980235B000B434F
:1002F0009361FFF719FF230743D59022D205916937
:1003000080231B020B439361630742D59022D205E1
:10031000916980235B010B439361A30741D5294A6F
:10032000916980239B000B439361E40740D5254AE4
:10033000916980235B000B439361FFF7F5FE224830
:10034000FFF7E2FE10BD9022D205916980231B02C7
:100350000B439361B4E79022D205916980235B053A
:100360000B439361B5E7174A916980239B040B43C4
:100370009361B6E7134A916980235B040B43936151
:10038000B7E79022D205916980231B060B43936146
:10039000BAE79022D205916980235B050B439361F4
:1003A000BBE7084A916980239B040B439361BCE738
:1003B000044A916980235B040B439361BDE7C04607
:1003C0000008004800040048B80B000010B51B4BA3
:1003D0005969802292020A435A6159698022D202E5
:1003E0000A435A615969802212030A435A619022D2
:1003F000D20511688223DB050B431360104A116894
:10040000A023DB020B4313600E4A1168A023DB0517
:100410000B4313600C48FFF777FE3320FFF73EFFD6
:100420003220FFF73BFF0C20FFF738FF2820FFF7B3
:1004300035FF0120FFF732FF10BDC046001002401B
:100440000004004800080048307500000E4B596950
:10045000802292020A435A619022D2051168FF203D
:1004600081431160D168AA380143D1605969802263
:10047000D2020A435A61054B1968054A0A431A60B9
:1004800000225A617047C046001002400004004834
:10049000555500000A4AD16980235B000B43D361A4
:1004A000084B01219962084ADA62DA680A43DA6085
:1004B0001A688A431A60054B802212031A6070473B
:1004C00000100240002000403F9C000000E100E0DE
:1004D000164A13780133DBB21370642B0DD0144B22
:1004E0001B783C2B11D0134B1B78642B15D0124A70
:1004F000136901218B4313617047130000221A70A6
:100500000B4A137801331370E9E7094B00221A7084
:10051000084A137801331370E5E7044A0023137087
:10052000034A1370034A1370E1E7C0463700002006
:100530003800002039000020002000409023DB0517
:100540001A690F239343012B10D0022B19D0042BCF
:1005500022D0082B14D1164A00231370154A1370A9
:10056000154A1370154B01221A7009E0104B012235
:100570001A70104A002313700F4A13700F4A137039
:1005800070470B4B012119700A4B00221A700A4B5D
:1005900019700A4B1A70F3E7054B01221A70054BCC
:1005A0001A70054B00221A70044B1A70E8E7C04617
:1005B000360000203400002035000020000000201C
:1005C00010B5FFF7BBFF2F4B1B78002B0BD12E4B29
:1005D0001B78002B1ED02D4A1278002A1AD02C4BE3
:1005E00002225A611EE02A4B08225A61294A00233E
:1005F0001370294A1370294A13700220FFF74EFE28
:100600002748FFF73FFEC020FFF748FE2548FFF7C9
:1006100039FEDCE7002B03D0234A1278002A02D1EE
:10062000002B18D110BD1A4B04225A611F4A1368BF
:1006300001218B4313600120FFF730FE1C48FFF7B8
:1006400021FEC020FFF72AFE1A48FFF71BFE1A48BA
:10065000FFF75AFDE6E701210D4B5961134A136874
:100660000B4313600120FFF719FE1148FFF70AFE44
:10067000C020FFF713FE0F48FFF704FE0E48FFF7F8
:1006800043FDCFE7000000203600002035000020A9
:100690000004004837000020380000203900002006
:1006A00098070008A407000834000020002000403C
:1006B000B4070008040000201027000010B5FFF761
:1006C00085FEFFF7C3FEFFF7E5FE0120FFF7E6FD1D
:1006D000FFF776FFFCE7FEE7FEE7704770477047DD
:1006E000704700000D488546FFF7FAFF0C480D499A
:1006F0000D4A002302E0D458C4500433C4188C427D
:10070000F9D30A4A0A4C002301E013600432A242E2
:10071000FBD300F011F8FFF7D1FFFEE70020002027
:100720000000002018000020C40700081800002066
:100730003C000020FEE7000070B500260C4C0D4D7B
:10074000641BA410A64209D1002600F019F80A4C37
:100750000A4D641BA410A64205D170BDB300EB582E
:1007600098470136EEE7B300EB5898470136F2E7B9
:10077000BC070008BC070008C0070008BC07000849
:10078000F8B5C046F8BC08BC9E467047F8B5C046F0
:08079000F8BC08BC9E4670474E
:10079800427574746F6E2047616D650050726573A1
:1007A80073205357302E2E2E0000000054696D65BB
:0407B800000000003D
:0407BC00E900000848
:0407C000C10000086C
:1007C400010000003E20202020202D202020202D6C
:0807D40020202D202D00000063
:04000005080006E504
:00000001FF
